:100000000C9434000C943A010C9451000C940E01A1
:100010000C9451000C9451000C9451000C9451001C
:100020000C9451000C9451000C9451000C948200DB
:100030000C9451000C9451000C94EA000C94510063
:100040000C9451000C9451000C945E000C945100DF
:100050000C9451000C9451000C9451000C945100DC
:100060000C9451000C94510011241FBECFEFD8E026
:10007000DEBFCDBF12E0A0E0B1E0E8E7F2E102C0F0
:1000800005900D92A035B107D9F713E0A0E5B2E0D5
:1000900001C01D92A53CB107E1F70E945E010C94DE
:1000A0003A090C94000080935202609353024093EB
:1000B0005402309351022093500208951F920F92E0
:1000C0000FB60F9211242F933F934F935F936F932B
:1000D0007F938F939F93AF93BF93EF93FF930E9470
:1000E000B205FF91EF91BF91AF919F918F917F9159
:1000F0006F915F914F913F912F910F900FBE0F9095
:100100001F9018951F920F920FB60F9211242F93E4
:100110003F934F935F936F937F938F939F93AF938F
:10012000BF93EF93FF9380915002909151020196FB
:10013000909351028093500280915002909151020D
:10014000885E9340B4F18091500290915102885E94
:1001500093409093510280935002809154028B33CC
:1001600030F4809154028F5F809354021AC0109231
:100170005402809153028B3330F4809153028F5F8D
:10018000809353020EC01092530280915202873125
:1001900030F4809152028F5F8093520202C010921D
:1001A00052028091520260915302409154020E9487
:1001B0002E05FF91EF91BF91AF919F918F917F910C
:1001C0006F915F914F913F912F910F900FBE0F90C4
:1001D0001F9018951F920F920FB60F9211242F9314
:1001E0003F934F935F936F937F938F939F93AF93BF
:1001F000BF93EF93FF930E949A03FF91EF91BF91FA
:10020000AF919F918F917F916F915F914F913F91AE
:100210002F910F900FBE0F901F9018951F920F9265
:100220000FB60F9211242F933F934F935F936F93C9
:100230007F938F939F93AF93BF93EF93FF9383B17C
:1002400080FF02C080E003C081FF03C081E00E9404
:100250001903FF91EF91BF91AF919F918F917F9182
:100260006F915F914F913F912F910F900FBE0F9023
:100270001F9018951F920F920FB60F9211242F9373
:100280003F934F935F936F937F938F939F93AF931E
:10029000BF93EF93FF930E941C03FF91EF91BF91D7
:1002A000AF919F918F917F916F915F914F913F910E
:1002B0002F910F900FBE0F901F90189518B88FE3D5
:1002C00087B98BB980EC8AB982E08093690081E0BC
:1002D0008DBB14B8289A299A85B5826085BD84B5EE
:1002E000826084BD83E587BD80916E0082608093CB
:1002F0006E00809181008C60809381008FE190E09E
:10030000909389008093880080916F008260809331
:100310006F008091680081608093680080916B001D
:10032000836080936B000E949F040E94580578941C
:10033000FFCF90E020E030E0482F50E070E006C0B2
:10034000E75AFD4F8081980F2F5F3F4FF901E40F6F
:10035000F51F6E177F07A4F740E0292F30E0969530
:10036000892F90E0880F991F2817390709F041E07D
:10037000842F0895EF92FF920F931F93CF93DF93F3
:10038000EC018B017A0180915502882309F4BBC0EE
:1003900080915902882309F0B6C025E130E090E051
:1003A000F901E75AFD4F8081980F2F5F3F4F2C31A5
:1003B0003105B1F75091750240E0292F30E0969554
:1003C000892F90E0880F991F2817390709F041E01D
:1003D000451709F098C080917602209177023091FC
:1003E00078024091790250917A02820F830F840F34
:1003F000850F20917B02820F50917C0240E0282FD4
:1004000030E0869590E0880F991F2817390709F08A
:1004100041E0451709F077C024E230E090E0F901AF
:10042000E75AFD4F8081980F2F5F3F4F2A333105E8
:10043000B1F75091930240E0292F30E09695892F33
:1004400090E0880F991F2817390709F041E04517F8
:1004500009F059C0E091760220917B0270917802F8
:100460008091790240917A0260917702AAE02A9FF6
:1004700090011124B5E04B9FA0011124240F351FDA
:10048000260F311D90E0880F991F870F911D880F4F
:10049000991F280F391F220F331FE20FF0916E02B0
:1004A0008091730290917402709170026091710258
:1004B0005091720240916F02E83128F58A9F9001B5
:1004C000112484E1989FC0011124280F391F240FA3
:1004D000311D5B9FC0011124280F391F862F90E02A
:1004E000880F991F870F911D880F991F280F391F9B
:1004F000220F331F8F2F820F8C3328F4E883F801EB
:100500008083F7011082DF91CF911F910F91FF90AF
:10051000EF9008950F931F93E82FD8018091560212
:1005200090915702019690935702809356028091C2
:1005300055028823A1F480915802882381F4EE2388
:1005400071F48091560290915702895E934038F081
:1005500081E08093550210929502809396028091DB
:1005600058028823A1F1EE2391F510925802809150
:100570005502882309F441C0809156029091570298
:10058000889718F41092550215C0809156029091E8
:1005900057028639910540F0E0919502F0E0E75A64
:1005A000FD4F81E0808306C0E0919502F0E0E75ABC
:1005B000FD4F1082809195028A3318F010925502F7
:1005C0001CC0809195028F5F8093950216C0809128
:1005D00058028823B1F4EE23A1F08091960288237B
:1005E00049F01D921C92CB01BA01A9010E94BA01E7
:1005F0001092960281E08093580210925702109256
:1006000056021F910F9108959C01F999FECF32BDBA
:1006100021BDF89A80B508959C01F999FECF1FBAC3
:1006200032BD21BD60BD0FB6F894FA9AF99A0FBE9B
:1006300008958093C4030895809197029091980241
:10064000C29708F446C08091C4034BE0849FC00168
:1006500011248E559D4F2091C0033091C10328175E
:10066000390709F18091C403849FC00111248E557C
:100670009D4F9093C1038093C0038091C40388234E
:1006800019F0813051F403C088EB92E002C081EC94
:1006900092E09093C3038093C2031092A002109241
:1006A000A10210929B021092980210929702E09180
:1006B000C003F091C1038481809399028185809366
:1006C0009A028091A00280939E028091A102809361
:1006D0009F02089550E047E020E030E0E1E0F0E0E4
:1006E000682F70E0CF01042E02C0880F991F0A9472
:1006F000E2F786239723042E02C0959587950A94E6
:10070000E2F7022E02C0880F991F0A94E2F7582BD5
:1007100041502F5F3F4F4F3F29F7852F0895982F66
:100720009F7398B99BB19F739BB99BB1807C982BA9
:100730009BB90895CF93DF93C091C003D091C103BB
:100740008D819E81892B09F449C020919C023091B2
:100750009D028D819E8182179307B8F510929D02AC
:1007600010929C029091A1028F81890F8093A10227
:100770003091C2032091C3031DC08091A1029885CE
:10078000891B8093A1028091A002E32FF22FDF0149
:100790000D900020E9F7AE1BBF0B90E012978A176F
:1007A0009B0718F01092A00205C08091A0028F5FF5
:1007B0008093A0029091A10288859817F0F680910D
:1007C0009F028F5F80939F0209C080919C0290914D
:1007D0009D02019690939D0280939C022091970226
:1007E00030919802888199812817390708F490C0C0
:1007F00020919702309198028A819B8182179307FA
:1008000008F486C0909199028C81891708F086C0FF
:1008100018B88BB18F738BB98BB18BB990919A0249
:100820008985891708F068C090919F02888598177C
:10083000E0F580919E02E091C203F091C303E80FBE
:10084000F11DE0818E2F81568A3108F4E0528E2FFF
:1008500080528034E0F420919F028E2F90E08097A8
:10086000FC01EE0FFF1FEE0FFF1FE80FF91FE20F55
:10087000F11DE15FFE4F9081892F8F7388B98BB195
:100880008F738BB98BB1907C982B9BB906C018B82D
:100890008BB18F738BB98BB18BB980919F028F5FB6
:1008A00080939F021092990239C010929F0280910A
:1008B0009E02E091C203F091C303DF010D9000207E
:1008C000E9F71197AE1BBF0B90E09D01215030401E
:1008D0008217930748F08A85813019F410929E029E
:1008E00008C0A0939E0205C080919E028F5F8093F6
:1008F0009E0210929A0212C018B88BB18F738BB9F6
:100900008BB18BB980919A028F5F80939A0206C057
:1009100018B88BB18F738BB98BB18BB9809197025B
:1009200090919802019690939802809397028091FB
:1009300099028F5F80939902DF91CF910895CF93B1
:10094000DF9382EA92E06BE070E04BE050E024E05D
:1009500033E00E942A068DEA92E060E070E04BE00E
:1009600050E024E033E00E942A06C1ECD2E0CE0140
:1009700066E170E04FEF50E024E033E00E942A0689
:1009800081E08093C4038091C4032BE0829FC00167
:1009900011248E559D4F9093C1038093C003809185
:1009A000C403882319F0813061F407C088EB92E01A
:1009B0009093C3038093C20304C0D093C303C09336
:1009C000C2031092A0021092A10210929B020E94F8
:1009D0001C03DF91CF91089586E190E061EC72E015
:1009E0004FEF50E02CE033E00E9446060895882344
:1009F00019F08130B1F40BC08BE090E062EA72E054
:100A00004BE050E02CE033E00E944606089580E081
:100A100090E06DEA72E04BE050E02CE033E00E94A1
:100A200046060895A1ECB2E0FC018FEF01900D9213
:100A30008150E1F71092A0021092A10210929B0245
:100A400008959BE0899FF0011124EE55FD4FDB01D5
:100A50008BE00D9001928150E1F708952DB73EB7DC
:100A60002A5030400FB6F8943EBF0FBE2DBFEDB7F1
:100A7000FEB7319628EB32E0ADB7BEB712963C9385
:100A80002E93119720E031E03383228384831582F3
:100A900066831782408711860E9462062DB73EB793
:100AA000265F3F4F0FB6F8943EBF0FBE2DBF08958F
:100AB0001092C5008CE08093C40088E98093C10047
:100AC0008EE08093C20008958091C00087FFFCCF24
:100AD0008091C6000895982F8091C00085FFFCCFBB
:100AE0009093C6000895AC0120E030E00CC08091E6
:100AF000C00087FFFCCF8091C600FA01E20FF31F10
:100B000080832F5F3F4F261737078CF308959C0192
:100B10008091C00087FFFCCF8091C600A0E0B0E0CC
:100B20000EC0F901EA0FFB1F80838091C00087FF90
:100B3000FCCF8091C6001196AF3FB10511F088231C
:100B400081F7A20FB31F1C920895FC0107C080918A
:100B5000C00085FFFCCF9093C60031969081992309
:100B6000B1F708950F931F93DF93CF93CDB7DEB7FF
:100B7000CF50D1400FB6F894DEBF0FBECDBF8091ED
:100B8000C00087FFFCCF1091C6008091C00087FF96
:100B9000FCCF0091C6001230F9F0123020F0133073
:100BA00009F04CC033C0FE013696BF019E012F5E96
:100BB0003F4F8091C00087FFFCCF8091C60081939A
:100BC000E217F307B1F7812F0E9421050023B1F14D
:100BD000812F0E94F70432C0FE0131969E012A5FE8
:100BE0003F4F8091C00087FFFCCF8091C60081936A
:100BF000E217F307B1F73D8120E08C81280F311D0A
:100C000089816A814B810E94530018C0FE01719650
:100C1000CF014E2F9E01205F3E4F8091C00087FF85
:100C2000FCCF8091C6008193E217F307B1F7842FC0
:100C30000E941205002311F00E94EC04C15FDE4FF8
:100C40000FB6F894DEBF0FBECDBFCF91DF911F91DD
:100C50000F910895A0E0B0E0E0E3F6E00C940D09F8
:100C60007C01EB018A01690109C0CE012196F601E0
:100C70000995F70181937F0101501040011511057D
:100C8000A1F7CDB7DEB7E8E00C942909A0E0B0E009
:100C9000ECE4F6E00C940D09EC017B018A0169019A
:100CA00009C0CE012196F70161917F01F6010995F6
:100CB0000150104001151105A1F7CDB7DEB7E8E0EE
:100CC0000C942909AEE0B0E0E8E6F6E00C941109D6
:100CD0000D891E8986E08C831A8309838FEF9FE735
:100CE0009E838D839E01275E3F4FCE0101966F89C3
:100CF000788DA9010E9486062F813885020F131F67
:100D0000F80110822E96E4E00C942D09ABE0B0E0DF
:100D1000ECE8F6E00C9403093C012B015A01FC01BC
:100D200017821682838181FD03C06FEF7FEFC6C1FA
:100D30009AE0892E1E010894211C311CF3012381A5
:100D4000F20123FD859123FF81912F01882309F46E
:100D5000B2C1853239F423FD859123FF81912F01A2
:100D6000853229F490E0B3010E947908E7CF982FEB
:100D7000FF24EE249924FFE1FF15D0F09B3269F0A7
:100D80009C3228F4903259F0933291F40EC09D3287
:100D900049F0903369F441E024C052E0F52A84E040
:100DA000F82A28C098E0F92A25C0E0E1FE2A22C0EE
:100DB000F7FC29C0892F80538A3070F4F6FE05C0F5
:100DC000989C902C1124980E15C0E89CE02C1124BE
:100DD000E80EF0E2FF2A0EC09E3229F4F6FC6BC149
:100DE00040E4F42A07C09C3619F450E8F52A02C002
:100DF000983649F4F20123FD959123FF91912F013B
:100E0000992309F0B8CF892F8554833018F0805288
:100E1000833038F444E050E0A40EB51E5FE35983FC
:100E20000FC0933631F0933779F0933509F056C0FF
:100E300020C0F5018081898342E050E0A40EB51EF8
:100E4000610101E010E012C0F501C080D180F6FC24
:100E500003C06FEF7FEF02C0692D70E042E050E009
:100E6000A40EB51EC6010E946E088C015FE7F52234
:100E700014C0F501C080D180F6FC03C06FEF7FEF96
:100E800002C0692D70E042E050E0A40EB51EC6011C
:100E90000E9463088C0150E8F52AF3FE07C01AC0CF
:100EA00080E290E0B3010E947908EA948E2D90E0F0
:100EB00008171907A8F30EC0F601F7FC8591F7FE95
:100EC00081916F0190E0B3010E947908E110EA94EA
:100ED000015010400115110579F7EAC0943611F060
:100EE000993669F5F7FE08C0F5012081318142810C
:100EF000538184E090E00AC0F501808191819C01DA
:100F0000442737FD4095542F82E090E0A80EB91E8B
:100F10009FE6F92257FF09C05095409530952195DD
:100F20003F4F4F4F5F4FE0E8FE2ACA01B901A101D0
:100F30002AE030E00E94A508D82ED21840C095378C
:100F400029F41F2D1F7E2AE030E01DC01F2D197FC0
:100F50009F3661F0903720F4983509F0ACC00FC08F
:100F6000903739F0983709F0A6C004C028E030E087
:100F70000AC0106114FD146020E130E004C014FDCB
:100F8000166020E132E017FF08C0F5016081718131
:100F90008281938144E050E008C0F5018081918115
:100FA000BC0180E090E042E050E0A40EB51EA1013B
:100FB0000E94A508D82ED2188FE7F82EF122F6FE4F
:100FC0000BC05EEFF522D91438F4F4FE07C0F2FC32
:100FD00005C08FEEF82202C01D2D01C0192DF4FEB0
:100FE0000DC0FE01ED0DF11D8081803319F499EEE5
:100FF000F92208C01F5FF2FE05C003C08F2D86785E
:1010000009F01F5F0F2DF3FC14C0F0FE0FC01E157A
:1010100010F09D2C0BC09D2C9E0C911A1E2D06C00D
:1010200080E290E0B3010E9479081F5F1E15C0F3B3
:1010300004C01E1510F4E11A01C0EE2404FF0FC015
:1010400080E390E0B3010E94790802FF1DC001FD1A
:1010500003C088E790E00EC088E590E00BC0802FC9
:10106000867891F001FF02C08BE201C080E2F7FCBC
:101070008DE290E0B3010E94790806C080E390E021
:10108000B3010E9479089A94D914C0F3DA94F1015B
:10109000ED0DF11D808190E0B3010E947908DD2003
:1010A000A9F706C080E290E0B3010E947908EA94B3
:1010B000EE20C1F743CEF30166817781CB012B96F9
:1010C000E2E10C941F09FC01059061507040011091
:1010D000D8F7809590958E0F9F1F0895FC01615061
:1010E000704001900110D8F7809590958E0F9F1F4A
:1010F00008950F931F93CF93DF938C01EB018B81A6
:1011000081FF1BC082FF0DC02E813F818C819D819C
:101110002817390764F4E881F9810193F983E8839A
:1011200006C0E885F985802F0995892B31F48E81D9
:101130009F8101969F838E8302C00FEF1FEFC8012E
:10114000DF91CF911F910F910895FA01AA272830BE
:1011500051F1203181F1E8946F936E7F6E5F7F4F84
:101160008F4F9F4FAF4FB1E03ED0B4E03CD0670F00
:10117000781F891F9A1FA11D680F791F8A1F911D53
:10118000A11D6A0F711D811D911DA11D20D009F4A3
:1011900068943F912AE0269F11243019305D3193E5
:1011A000DEF6CF010895462F4770405D4193B3E0CE
:1011B0000FD0C9F7F6CF462F4F70405D4A3318F075
:1011C000495D31FD4052419302D0A9F7EACFB4E026
:1011D000A6959795879577956795BA95C9F70097DE
:1011E0006105710508959B01AC010A2E069457957F
:1011F000479537952795BA95C9F7620F731F841FD6
:10120000951FA01D08952F923F924F925F926F926B
:101210007F928F929F92AF92BF92CF92DF92EF9286
:10122000FF920F931F93CF93DF93CDB7DEB7CA1B07
:10123000DB0B0FB6F894DEBF0FBECDBF09942A8832
:10124000398848885F846E847D848C849B84AA84DA
:10125000B984C884DF80EE80FD800C811B81AA8167
:10126000B981CE0FD11D0FB6F894DEBF0FBECDBF32
:08127000ED010895F894FFCF91
:10127800253032643A253032643A25303264000031
:10128800000000000000BF0000000700070024FF66
:1012980024FF2424CB52D324836318C6C1669999AA
:1012A80066900000000700007E8181000081817E39
:1012B800002A1C3E1C2A08083E08080000E000001E
:1012C8000808080808000080000080601806017EF1
:1012D8008181817E00000000FF70898989068189EB
:1012E80089897607080808F70689898970768989BF
:1012F800897001010101FE76898989760609090943
:10130800F600006600000000E60000081422410014
:10131800141414141441221408000201B109067EA1
:101328008199A11EFE111111FEFF898999667E819E
:10133800818142FF8181817EFF89898981FF090935
:1013480009017E81919162FF080808FF0000FF00F3
:1013580000418181817FFF18244281FF8080808045
:10136800FF020402FFFF061860FF7E8181817EFF75
:10137800090909067E81A1C1FEFF192949868689C6
:101388008989710101FF01017F8080807F3F408052
:10139800403F7F8070807FF7080808F70708F0084B
:1013A80007E19189858300FF81810001061860802B
:1013B800008181FF00040201020480808080800097
:00000001FF
